{
  "_format": "hh-sol-artifact-1",
  "contractName": "MerkleVault",
  "sourceName": "contracts/MerkleVault.sol",
  "abi": [
    {
      "inputs": [
        {
          "internalType": "address",
          "name": "proposal",
          "type": "address"
        },
        {
          "internalType": "address",
          "name": "validator",
          "type": "address"
        }
      ],
      "stateMutability": "nonpayable",
      "type": "constructor"
    },
    {
      "inputs": [],
      "name": "AlreadyClaimed",
      "type": "error"
    },
    {
      "inputs": [],
      "name": "AlreadySet",
      "type": "error"
    },
    {
      "inputs": [],
      "name": "CannotBeZero",
      "type": "error"
    },
    {
      "inputs": [],
      "name": "ClaimNotFound",
      "type": "error"
    },
    {
      "inputs": [],
      "name": "InsufficientBalance",
      "type": "error"
    },
    {
      "inputs": [],
      "name": "InvalidSequence",
      "type": "error"
    },
    {
      "inputs": [],
      "name": "TokenNotAllowed",
      "type": "error"
    },
    {
      "anonymous": false,
      "inputs": [
        {
          "indexed": true,
          "internalType": "address",
          "name": "tokenAddress",
          "type": "address"
        },
        {
          "indexed": false,
          "internalType": "bool",
          "name": "allowed",
          "type": "bool"
        }
      ],
      "name": "AllowListChange",
      "type": "event"
    },
    {
      "anonymous": false,
      "inputs": [
        {
          "indexed": true,
          "internalType": "address",
          "name": "tokenAddress",
          "type": "address"
        },
        {
          "indexed": true,
          "internalType": "address",
          "name": "from",
          "type": "address"
        },
        {
          "indexed": false,
          "internalType": "uint256",
          "name": "amount",
          "type": "uint256"
        }
      ],
      "name": "NewDeposit",
      "type": "event"
    },
    {
      "anonymous": false,
      "inputs": [
        {
          "indexed": true,
          "internalType": "uint256",
          "name": "merkleNumber",
          "type": "uint256"
        }
      ],
      "name": "NewMerkleTree",
      "type": "event"
    },
    {
      "anonymous": false,
      "inputs": [
        {
          "indexed": true,
          "internalType": "address",
          "name": "tokenAddress",
          "type": "address"
        },
        {
          "indexed": true,
          "internalType": "address",
          "name": "from",
          "type": "address"
        },
        {
          "indexed": false,
          "internalType": "uint256",
          "name": "amount",
          "type": "uint256"
        }
      ],
      "name": "NewWithdrawal",
      "type": "event"
    },
    {
      "anonymous": false,
      "inputs": [
        {
          "indexed": true,
          "internalType": "uint256",
          "name": "proposalNumber",
          "type": "uint256"
        }
      ],
      "name": "ProposedMerkleTree",
      "type": "event"
    },
    {
      "anonymous": false,
      "inputs": [
        {
          "indexed": true,
          "internalType": "bytes32",
          "name": "role",
          "type": "bytes32"
        },
        {
          "indexed": true,
          "internalType": "bytes32",
          "name": "previousAdminRole",
          "type": "bytes32"
        },
        {
          "indexed": true,
          "internalType": "bytes32",
          "name": "newAdminRole",
          "type": "bytes32"
        }
      ],
      "name": "RoleAdminChanged",
      "type": "event"
    },
    {
      "anonymous": false,
      "inputs": [
        {
          "indexed": true,
          "internalType": "bytes32",
          "name": "role",
          "type": "bytes32"
        },
        {
          "indexed": true,
          "internalType": "address",
          "name": "account",
          "type": "address"
        },
        {
          "indexed": true,
          "internalType": "address",
          "name": "sender",
          "type": "address"
        }
      ],
      "name": "RoleGranted",
      "type": "event"
    },
    {
      "anonymous": false,
      "inputs": [
        {
          "indexed": true,
          "internalType": "bytes32",
          "name": "role",
          "type": "bytes32"
        },
        {
          "indexed": true,
          "internalType": "address",
          "name": "account",
          "type": "address"
        },
        {
          "indexed": true,
          "internalType": "address",
          "name": "sender",
          "type": "address"
        }
      ],
      "name": "RoleRevoked",
      "type": "event"
    },
    {
      "inputs": [],
      "name": "DEFAULT_ADMIN_ROLE",
      "outputs": [
        {
          "internalType": "bytes32",
          "name": "",
          "type": "bytes32"
        }
      ],
      "stateMutability": "view",
      "type": "function"
    },
    {
      "inputs": [],
      "name": "PROPOSAL_ROLE",
      "outputs": [
        {
          "internalType": "bytes32",
          "name": "",
          "type": "bytes32"
        }
      ],
      "stateMutability": "view",
      "type": "function"
    },
    {
      "inputs": [],
      "name": "VALIDATOR_ROLE",
      "outputs": [
        {
          "internalType": "bytes32",
          "name": "",
          "type": "bytes32"
        }
      ],
      "stateMutability": "view",
      "type": "function"
    },
    {
      "inputs": [
        {
          "internalType": "address",
          "name": "",
          "type": "address"
        }
      ],
      "name": "allowList",
      "outputs": [
        {
          "internalType": "bool",
          "name": "",
          "type": "bool"
        }
      ],
      "stateMutability": "view",
      "type": "function"
    },
    {
      "inputs": [
        {
          "internalType": "address",
          "name": "",
          "type": "address"
        }
      ],
      "name": "balance",
      "outputs": [
        {
          "internalType": "uint256",
          "name": "",
          "type": "uint256"
        }
      ],
      "stateMutability": "view",
      "type": "function"
    },
    {
      "inputs": [],
      "name": "depositNativeToken",
      "outputs": [],
      "stateMutability": "payable",
      "type": "function"
    },
    {
      "inputs": [
        {
          "internalType": "address",
          "name": "_recipient",
          "type": "address"
        }
      ],
      "name": "depositNativeTokenFor",
      "outputs": [],
      "stateMutability": "payable",
      "type": "function"
    },
    {
      "inputs": [
        {
          "internalType": "address",
          "name": "_tokenAddress",
          "type": "address"
        },
        {
          "internalType": "uint256",
          "name": "_amount",
          "type": "uint256"
        }
      ],
      "name": "depositToken",
      "outputs": [],
      "stateMutability": "nonpayable",
      "type": "function"
    },
    {
      "inputs": [
        {
          "internalType": "address",
          "name": "_tokenAddress",
          "type": "address"
        },
        {
          "internalType": "uint256",
          "name": "_amount",
          "type": "uint256"
        },
        {
          "internalType": "address",
          "name": "_recipient",
          "type": "address"
        }
      ],
      "name": "depositTokenFor",
      "outputs": [],
      "stateMutability": "nonpayable",
      "type": "function"
    },
    {
      "inputs": [
        {
          "internalType": "bytes32",
          "name": "role",
          "type": "bytes32"
        }
      ],
      "name": "getRoleAdmin",
      "outputs": [
        {
          "internalType": "bytes32",
          "name": "",
          "type": "bytes32"
        }
      ],
      "stateMutability": "view",
      "type": "function"
    },
    {
      "inputs": [
        {
          "internalType": "bytes32",
          "name": "role",
          "type": "bytes32"
        },
        {
          "internalType": "address",
          "name": "account",
          "type": "address"
        }
      ],
      "name": "grantRole",
      "outputs": [],
      "stateMutability": "nonpayable",
      "type": "function"
    },
    {
      "inputs": [
        {
          "internalType": "bytes32",
          "name": "role",
          "type": "bytes32"
        },
        {
          "internalType": "address",
          "name": "account",
          "type": "address"
        }
      ],
      "name": "hasRole",
      "outputs": [
        {
          "internalType": "bool",
          "name": "",
          "type": "bool"
        }
      ],
      "stateMutability": "view",
      "type": "function"
    },
    {
      "inputs": [
        {
          "internalType": "uint256",
          "name": "_merkleCount",
          "type": "uint256"
        },
        {
          "internalType": "uint256",
          "name": "index",
          "type": "uint256"
        }
      ],
      "name": "isClaimed",
      "outputs": [
        {
          "internalType": "bool",
          "name": "",
          "type": "bool"
        }
      ],
      "stateMutability": "view",
      "type": "function"
    },
    {
      "inputs": [],
      "name": "merkleRootCount",
      "outputs": [
        {
          "internalType": "uint256",
          "name": "",
          "type": "uint256"
        }
      ],
      "stateMutability": "view",
      "type": "function"
    },
    {
      "inputs": [
        {
          "internalType": "uint256",
          "name": "",
          "type": "uint256"
        }
      ],
      "name": "merkleRoots",
      "outputs": [
        {
          "internalType": "bytes32",
          "name": "merkleRoot",
          "type": "bytes32"
        },
        {
          "internalType": "uint256",
          "name": "merkleNumber",
          "type": "uint256"
        },
        {
          "internalType": "uint256",
          "name": "endTime",
          "type": "uint256"
        },
        {
          "internalType": "bytes4",
          "name": "ipfs_cid_prefix",
          "type": "bytes4"
        },
        {
          "internalType": "bytes32",
          "name": "ipfs_cid_hash",
          "type": "bytes32"
        }
      ],
      "stateMutability": "view",
      "type": "function"
    },
    {
      "inputs": [
        {
          "internalType": "bytes32",
          "name": "_merkleRoot",
          "type": "bytes32"
        },
        {
          "internalType": "uint256",
          "name": "_merkleNumber",
          "type": "uint256"
        },
        {
          "internalType": "uint256",
          "name": "_endTime",
          "type": "uint256"
        },
        {
          "internalType": "bytes4",
          "name": "_ipfs_cid_prefix",
          "type": "bytes4"
        },
        {
          "internalType": "bytes32",
          "name": "_ipfs_cid_hash",
          "type": "bytes32"
        }
      ],
      "name": "proposeRoot",
      "outputs": [],
      "stateMutability": "nonpayable",
      "type": "function"
    },
    {
      "inputs": [],
      "name": "proposedRootCount",
      "outputs": [
        {
          "internalType": "uint256",
          "name": "",
          "type": "uint256"
        }
      ],
      "stateMutability": "view",
      "type": "function"
    },
    {
      "inputs": [
        {
          "internalType": "uint256",
          "name": "",
          "type": "uint256"
        }
      ],
      "name": "proposedRoots",
      "outputs": [
        {
          "internalType": "bytes32",
          "name": "merkleRoot",
          "type": "bytes32"
        },
        {
          "internalType": "uint256",
          "name": "merkleNumber",
          "type": "uint256"
        },
        {
          "internalType": "uint256",
          "name": "endTime",
          "type": "uint256"
        },
        {
          "internalType": "bytes4",
          "name": "ipfs_cid_prefix",
          "type": "bytes4"
        },
        {
          "internalType": "bytes32",
          "name": "ipfs_cid_hash",
          "type": "bytes32"
        }
      ],
      "stateMutability": "view",
      "type": "function"
    },
    {
      "inputs": [
        {
          "internalType": "bytes32",
          "name": "role",
          "type": "bytes32"
        },
        {
          "internalType": "address",
          "name": "account",
          "type": "address"
        }
      ],
      "name": "renounceRole",
      "outputs": [],
      "stateMutability": "nonpayable",
      "type": "function"
    },
    {
      "inputs": [
        {
          "internalType": "bytes32",
          "name": "role",
          "type": "bytes32"
        },
        {
          "internalType": "address",
          "name": "account",
          "type": "address"
        }
      ],
      "name": "revokeRole",
      "outputs": [],
      "stateMutability": "nonpayable",
      "type": "function"
    },
    {
      "inputs": [
        {
          "internalType": "address",
          "name": "_tokenAddress",
          "type": "address"
        },
        {
          "internalType": "bool",
          "name": "_allowed",
          "type": "bool"
        }
      ],
      "name": "setAllowedToken",
      "outputs": [],
      "stateMutability": "nonpayable",
      "type": "function"
    },
    {
      "inputs": [
        {
          "internalType": "bytes4",
          "name": "interfaceId",
          "type": "bytes4"
        }
      ],
      "name": "supportsInterface",
      "outputs": [
        {
          "internalType": "bool",
          "name": "",
          "type": "bool"
        }
      ],
      "stateMutability": "view",
      "type": "function"
    },
    {
      "inputs": [
        {
          "internalType": "uint256",
          "name": "_proposalNumber",
          "type": "uint256"
        }
      ],
      "name": "validateRoot",
      "outputs": [],
      "stateMutability": "nonpayable",
      "type": "function"
    },
    {
      "inputs": [
        {
          "internalType": "address payable",
          "name": "_recipient",
          "type": "address"
        },
        {
          "internalType": "address",
          "name": "_tokenAddress",
          "type": "address"
        },
        {
          "internalType": "uint256",
          "name": "_merkleCount",
          "type": "uint256"
        },
        {
          "internalType": "uint256",
          "name": "_merkleIndex",
          "type": "uint256"
        },
        {
          "internalType": "uint256",
          "name": "_amount",
          "type": "uint256"
        },
        {
          "internalType": "bytes32[]",
          "name": "_merkleProof",
          "type": "bytes32[]"
        }
      ],
      "name": "withdraw",
      "outputs": [],
      "stateMutability": "nonpayable",
      "type": "function"
    }
  ],
  "bytecode": "0x60806040523480156200001157600080fd5b5060405162002f3f38038062002f3f833981810160405281019062000037919062000285565b6200004c6000801b33620000b860201b60201c565b6200007e7f928a06763e707c43312a1f59b5552de4dc7c2264c9bf9418d4e285b103cbcb2283620000b860201b60201c565b620000b07f21702c8af46127c7fa207f89d0b0a8441bb32959a0ac7df790e9ab1a25c9892682620000b860201b60201c565b5050620002cc565b620000ca8282620001a960201b60201c565b620001a557600160008084815260200190815260200160002060000160008373ffffffffffffffffffffffffffffffffffffffff1673ffffffffffffffffffffffffffffffffffffffff16815260200190815260200160002060006101000a81548160ff0219169083151502179055506200014a6200021360201b60201c565b73ffffffffffffffffffffffffffffffffffffffff168173ffffffffffffffffffffffffffffffffffffffff16837f2f8788117e7eff1d82e926ec794901d17c78024a50270940304540a733656f0d60405160405180910390a45b5050565b600080600084815260200190815260200160002060000160008373ffffffffffffffffffffffffffffffffffffffff1673ffffffffffffffffffffffffffffffffffffffff16815260200190815260200160002060009054906101000a900460ff16905092915050565b600033905090565b600080fd5b600073ffffffffffffffffffffffffffffffffffffffff82169050919050565b60006200024d8262000220565b9050919050565b6200025f8162000240565b81146200026b57600080fd5b50565b6000815190506200027f8162000254565b92915050565b600080604083850312156200029f576200029e6200021b565b5b6000620002af858286016200026e565b9250506020620002c2858286016200026e565b9150509250929050565b612c6380620002dc6000396000f3fe60806040526004361061014b5760003560e01c80638c295fa5116100b6578063cfc9f18b1161006f578063cfc9f18b14610476578063d15f72d71461049f578063d547741f146104ca578063e3d670d7146104f3578063f364c90c14610530578063f3cf88311461056d5761014b565b80638c295fa51461037557806391d148541461039e578063a217fddf146103db578063aa25be5014610406578063ab3a9f3214610422578063c49baebe1461044b5761014b565b806336568abe1161010857806336568abe14610282578063666eb3fc146102ab57806371c5ecb1146102d6578063721374361461031757806379433d8b146103425780638aaa22841461034c5761014b565b806301ffc9a714610150578063248a9ca31461018d5780632848aeaf146101ca5780632f2ff15d14610207578063338b5dea1461023057806335bb5fd914610259575b600080fd5b34801561015c57600080fd5b5061017760048036038101906101729190611ef1565b6105ae565b6040516101849190611f39565b60405180910390f35b34801561019957600080fd5b506101b460048036038101906101af9190611f8a565b610628565b6040516101c19190611fc6565b60405180910390f35b3480156101d657600080fd5b506101f160048036038101906101ec919061203f565b610647565b6040516101fe9190611f39565b60405180910390f35b34801561021357600080fd5b5061022e6004803603810190610229919061206c565b610667565b005b34801561023c57600080fd5b50610257600480360381019061025291906120e2565b610688565b005b34801561026557600080fd5b50610280600480360381019061027b91906121c5565b610697565b005b34801561028e57600080fd5b506102a960048036038101906102a4919061206c565b6109b9565b005b3480156102b757600080fd5b506102c0610a3c565b6040516102cd9190612283565b60405180910390f35b3480156102e257600080fd5b506102fd60048036038101906102f8919061229e565b610a42565b60405161030e9594939291906122da565b60405180910390f35b34801561032357600080fd5b5061032c610a85565b6040516103399190611fc6565b60405180910390f35b61034a610aa9565b005b34801561035857600080fd5b50610373600480360381019061036e9190612359565b610ab4565b005b34801561038157600080fd5b5061039c6004803603810190610397919061229e565b610bf4565b005b3480156103aa57600080fd5b506103c560048036038101906103c0919061206c565b610db6565b6040516103d29190611f39565b60405180910390f35b3480156103e757600080fd5b506103f0610e20565b6040516103fd9190611fc6565b60405180910390f35b610420600480360381019061041b919061203f565b610e27565b005b34801561042e57600080fd5b5061044960048036038101906104449190612399565b610f70565b005b34801561045757600080fd5b50610460611127565b60405161046d9190611fc6565b60405180910390f35b34801561048257600080fd5b5061049d600480360381019061049891906123ec565b61114b565b005b3480156104ab57600080fd5b506104b46112ee565b6040516104c19190612283565b60405180910390f35b3480156104d657600080fd5b506104f160048036038101906104ec919061206c565b6112f4565b005b3480156104ff57600080fd5b5061051a6004803603810190610515919061203f565b611315565b6040516105279190612283565b60405180910390f35b34801561053c57600080fd5b5061055760048036038101906105529190612467565b61132d565b6040516105649190611f39565b60405180910390f35b34801561057957600080fd5b50610594600480360381019061058f919061229e565b61135c565b6040516105a59594939291906122da565b60405180910390f35b60007f7965db0b000000000000000000000000000000000000000000000000000000007bffffffffffffffffffffffffffffffffffffffffffffffffffffffff1916827bffffffffffffffffffffffffffffffffffffffffffffffffffffffff1916148061062157506106208261139f565b5b9050919050565b6000806000838152602001908152602001600020600101549050919050565b60026020528060005260406000206000915054906101000a900460ff1681565b61067082610628565b61067981611409565b610683838361141d565b505050565b610693828233610f70565b5050565b600015156106a5868661132d565b1515146106de576040517f646cf55800000000000000000000000000000000000000000000000000000000815260040160405180910390fd5b82600160008873ffffffffffffffffffffffffffffffffffffffff1673ffffffffffffffffffffffffffffffffffffffff168152602001908152602001600020541015610757576040517ff4d678b800000000000000000000000000000000000000000000000000000000815260040160405180910390fd5b600061076585888a876114fd565b9050600115156107cd848480806020026020016040519081016040528093929190818152602001838360200280828437600081840152601f19601f82011690508083019250505050505050600660008a8152602001908152602001600020600001548461155c565b151514610806576040517f0455eeee00000000000000000000000000000000000000000000000000000000815260040160405180910390fd5b6108108686611573565b83600160008973ffffffffffffffffffffffffffffffffffffffff1673ffffffffffffffffffffffffffffffffffffffff1681526020019081526020016000205461085b91906124d6565b600160008973ffffffffffffffffffffffffffffffffffffffff1673ffffffffffffffffffffffffffffffffffffffff16815260200190815260200160002081905550600073ffffffffffffffffffffffffffffffffffffffff168773ffffffffffffffffffffffffffffffffffffffff160361091e578773ffffffffffffffffffffffffffffffffffffffff166108fc859081150290604051600060405180830381858888f19350505050158015610918573d6000803e3d6000fd5b5061094a565b61094988858973ffffffffffffffffffffffffffffffffffffffff1661159f9092919063ffffffff16565b5b3373ffffffffffffffffffffffffffffffffffffffff168773ffffffffffffffffffffffffffffffffffffffff167f342cefd1b5d176844b82654eddd03fb5a01ec1025b51048cff802621dd873da4866040516109a79190612283565b60405180910390a35050505050505050565b6109c1611625565b73ffffffffffffffffffffffffffffffffffffffff168173ffffffffffffffffffffffffffffffffffffffff1614610a2e576040517f08c379a0000000000000000000000000000000000000000000000000000000008152600401610a259061258d565b60405180910390fd5b610a38828261162d565b5050565b60055481565b60066020528060005260406000206000915090508060000154908060010154908060020154908060030160009054906101000a900460e01b908060040154905085565b7f928a06763e707c43312a1f59b5552de4dc7c2264c9bf9418d4e285b103cbcb2281565b610ab233610e27565b565b6000801b610ac181611409565b811515600260008573ffffffffffffffffffffffffffffffffffffffff1673ffffffffffffffffffffffffffffffffffffffff16815260200190815260200160002060009054906101000a900460ff16151503610b4a576040517fa741a04500000000000000000000000000000000000000000000000000000000815260040160405180910390fd5b81600260008573ffffffffffffffffffffffffffffffffffffffff1673ffffffffffffffffffffffffffffffffffffffff16815260200190815260200160002060006101000a81548160ff0219169083151502179055508273ffffffffffffffffffffffffffffffffffffffff167fd003311099c643a28802147fdbc087dd026e2850e364b69a16513a29f4aa2b4983604051610be79190611f39565b60405180910390a2505050565b7f21702c8af46127c7fa207f89d0b0a8441bb32959a0ac7df790e9ab1a25c98926610c1e81611409565b6000600460008481526020019081526020016000206040518060a00160405290816000820154815260200160018201548152602001600282015481526020016003820160009054906101000a900460e01b7bffffffffffffffffffffffffffffffffffffffffffffffffffffffff19167bffffffffffffffffffffffffffffffffffffffffffffffffffffffff1916815260200160048201548152505090506001600554610ccc91906125ad565b816020015114610d08576040517f28e2aa3700000000000000000000000000000000000000000000000000000000815260040160405180910390fd5b6001600554610d1791906125ad565b6005819055508060066000600554815260200190815260200160002060008201518160000155602082015181600101556040820151816002015560608201518160030160006101000a81548163ffffffff021916908360e01c0217905550608082015181600401559050506005547fbd1002aa8ae53c662ceb64a0640e40160655500622d1332869b31e7d56559d7460405160405180910390a2505050565b600080600084815260200190815260200160002060000160008373ffffffffffffffffffffffffffffffffffffffff1673ffffffffffffffffffffffffffffffffffffffff16815260200190815260200160002060009054906101000a900460ff16905092915050565b6000801b81565b60011515600260008073ffffffffffffffffffffffffffffffffffffffff1673ffffffffffffffffffffffffffffffffffffffff16815260200190815260200160002060009054906101000a900460ff16151503610eb1576040517fa29c498600000000000000000000000000000000000000000000000000000000815260040160405180910390fd5b34600160008073ffffffffffffffffffffffffffffffffffffffff1673ffffffffffffffffffffffffffffffffffffffff1681526020019081526020016000206000828254610f0091906125ad565b925050819055508073ffffffffffffffffffffffffffffffffffffffff16600073ffffffffffffffffffffffffffffffffffffffff167f83df459d706116d1b3f1c7b7f77cfea4c635275f5d1e1a53827f536ef48db77d34604051610f659190612283565b60405180910390a350565b60008203610faa576040517f1e1d0ab500000000000000000000000000000000000000000000000000000000815260040160405180910390fd5b60011515600260008573ffffffffffffffffffffffffffffffffffffffff1673ffffffffffffffffffffffffffffffffffffffff16815260200190815260200160002060009054906101000a900460ff16151514611034576040517fa29c498600000000000000000000000000000000000000000000000000000000815260040160405180910390fd5b60008390506110663330858473ffffffffffffffffffffffffffffffffffffffff1661170e909392919063ffffffff16565b82600160008673ffffffffffffffffffffffffffffffffffffffff1673ffffffffffffffffffffffffffffffffffffffff16815260200190815260200160002060008282546110b591906125ad565b925050819055508173ffffffffffffffffffffffffffffffffffffffff168473ffffffffffffffffffffffffffffffffffffffff167f83df459d706116d1b3f1c7b7f77cfea4c635275f5d1e1a53827f536ef48db77d856040516111199190612283565b60405180910390a350505050565b7f21702c8af46127c7fa207f89d0b0a8441bb32959a0ac7df790e9ab1a25c9892681565b7f928a06763e707c43312a1f59b5552de4dc7c2264c9bf9418d4e285b103cbcb2261117581611409565b6000801b86036111b1576040517f1e1d0ab500000000000000000000000000000000000000000000000000000000815260040160405180910390fd5b60016005546111c091906125ad565b85146111f8576040517f28e2aa3700000000000000000000000000000000000000000000000000000000815260040160405180910390fd5b600160035461120791906125ad565b6003819055506040518060a00160405280878152602001868152602001858152602001847bffffffffffffffffffffffffffffffffffffffffffffffffffffffff191681526020018381525060046000600354815260200190815260200160002060008201518160000155602082015181600101556040820151816002015560608201518160030160006101000a81548163ffffffff021916908360e01c0217905550608082015181600401559050506003547f17b4938e3f4dfabf089f54175cdda6cd2307c0f83d7a8cf8e50b61eff68d5bac60405160405180910390a2505050505050565b60035481565b6112fd82610628565b61130681611409565b611310838361162d565b505050565b60016020528060005260406000206000915090505481565b6000611354826007600086815260200190815260200160002061179790919063ffffffff16565b905092915050565b60046020528060005260406000206000915090508060000154908060010154908060020154908060030160009054906101000a900460e01b908060040154905085565b60007f01ffc9a7000000000000000000000000000000000000000000000000000000007bffffffffffffffffffffffffffffffffffffffffffffffffffffffff1916827bffffffffffffffffffffffffffffffffffffffffffffffffffffffff1916149050919050565b61141a81611415611625565b6117d3565b50565b6114278282610db6565b6114f957600160008084815260200190815260200160002060000160008373ffffffffffffffffffffffffffffffffffffffff1673ffffffffffffffffffffffffffffffffffffffff16815260200190815260200160002060006101000a81548160ff02191690831515021790555061149e611625565b73ffffffffffffffffffffffffffffffffffffffff168173ffffffffffffffffffffffffffffffffffffffff16837f2f8788117e7eff1d82e926ec794901d17c78024a50270940304540a733656f0d60405160405180910390a45b5050565b60008484848460405160200161151694939291906125f0565b6040516020818303038152906040528051906020012060405160200161153c9190612656565b604051602081830303815290604052805190602001209050949350505050565b6000826115698584611858565b1490509392505050565b61159b816001600760008681526020019081526020016000206118ae9092919063ffffffff16565b5050565b6116208363a9059cbb60e01b84846040516024016115be929190612671565b604051602081830303815290604052907bffffffffffffffffffffffffffffffffffffffffffffffffffffffff19166020820180517bffffffffffffffffffffffffffffffffffffffffffffffffffffffff83818316178352505050506118d3565b505050565b600033905090565b6116378282610db6565b1561170a57600080600084815260200190815260200160002060000160008373ffffffffffffffffffffffffffffffffffffffff1673ffffffffffffffffffffffffffffffffffffffff16815260200190815260200160002060006101000a81548160ff0219169083151502179055506116af611625565b73ffffffffffffffffffffffffffffffffffffffff168173ffffffffffffffffffffffffffffffffffffffff16837ff6391f5c32d9c69d2a47ea670b442974b53935d1edc7fd64eb21e047a839171b60405160405180910390a45b5050565b611791846323b872dd60e01b85858560405160240161172f9392919061269a565b604051602081830303815290604052907bffffffffffffffffffffffffffffffffffffffffffffffffffffffff19166020820180517bffffffffffffffffffffffffffffffffffffffffffffffffffffffff83818316178352505050506118d3565b50505050565b600080600883901c9050600060ff84166001901b9050600081866000016000858152602001908152602001600020541614159250505092915050565b6117dd8282610db6565b611854576117ea8161199a565b6117f88360001c60206119c7565b6040516020016118099291906127da565b6040516020818303038152906040526040517f08c379a000000000000000000000000000000000000000000000000000000000815260040161184b919061285e565b60405180910390fd5b5050565b60008082905060005b84518110156118a35761188e8286838151811061188157611880612880565b5b6020026020010151611c03565b9150808061189b906128af565b915050611861565b508091505092915050565b80156118c3576118be8383611c2e565b6118ce565b6118cd8383611c6c565b5b505050565b6000611935826040518060400160405280602081526020017f5361666545524332303a206c6f772d6c6576656c2063616c6c206661696c65648152508573ffffffffffffffffffffffffffffffffffffffff16611cab9092919063ffffffff16565b90506000815111156119955780806020019051810190611955919061290c565b611994576040517f08c379a000000000000000000000000000000000000000000000000000000000815260040161198b906129ab565b60405180910390fd5b5b505050565b60606119c08273ffffffffffffffffffffffffffffffffffffffff16601460ff166119c7565b9050919050565b6060600060028360026119da91906129cb565b6119e491906125ad565b67ffffffffffffffff8111156119fd576119fc612a0d565b5b6040519080825280601f01601f191660200182016040528015611a2f5781602001600182028036833780820191505090505b5090507f300000000000000000000000000000000000000000000000000000000000000081600081518110611a6757611a66612880565b5b60200101907effffffffffffffffffffffffffffffffffffffffffffffffffffffffffffff1916908160001a9053507f780000000000000000000000000000000000000000000000000000000000000081600181518110611acb57611aca612880565b5b60200101907effffffffffffffffffffffffffffffffffffffffffffffffffffffffffffff1916908160001a90535060006001846002611b0b91906129cb565b611b1591906125ad565b90505b6001811115611bb5577f3031323334353637383961626364656600000000000000000000000000000000600f861660108110611b5757611b56612880565b5b1a60f81b828281518110611b6e57611b6d612880565b5b60200101907effffffffffffffffffffffffffffffffffffffffffffffffffffffffffffff1916908160001a905350600485901c945080611bae90612a3c565b9050611b18565b5060008414611bf9576040517f08c379a0000000000000000000000000000000000000000000000000000000008152600401611bf090612ab1565b60405180910390fd5b8091505092915050565b6000818310611c1b57611c168284611cc3565b611c26565b611c258383611cc3565b5b905092915050565b6000600882901c9050600060ff83166001901b9050808460000160008481526020019081526020016000206000828254179250508190555050505050565b6000600882901c9050600060ff83166001901b905080198460000160008481526020019081526020016000206000828254169250508190555050505050565b6060611cba8484600085611cda565b90509392505050565b600082600052816020526040600020905092915050565b606082471015611d1f576040517f08c379a0000000000000000000000000000000000000000000000000000000008152600401611d1690612b43565b60405180910390fd5b6000808673ffffffffffffffffffffffffffffffffffffffff168587604051611d489190612baa565b60006040518083038185875af1925050503d8060008114611d85576040519150601f19603f3d011682016040523d82523d6000602084013e611d8a565b606091505b5091509150611d9b87838387611da7565b92505050949350505050565b60608315611e09576000835103611e0157611dc185611e1c565b611e00576040517f08c379a0000000000000000000000000000000000000000000000000000000008152600401611df790612c0d565b60405180910390fd5b5b829050611e14565b611e138383611e3f565b5b949350505050565b6000808273ffffffffffffffffffffffffffffffffffffffff163b119050919050565b600082511115611e525781518083602001fd5b806040517f08c379a0000000000000000000000000000000000000000000000000000000008152600401611e86919061285e565b60405180910390fd5b600080fd5b600080fd5b60007fffffffff0000000000000000000000000000000000000000000000000000000082169050919050565b611ece81611e99565b8114611ed957600080fd5b50565b600081359050611eeb81611ec5565b92915050565b600060208284031215611f0757611f06611e8f565b5b6000611f1584828501611edc565b91505092915050565b60008115159050919050565b611f3381611f1e565b82525050565b6000602082019050611f4e6000830184611f2a565b92915050565b6000819050919050565b611f6781611f54565b8114611f7257600080fd5b50565b600081359050611f8481611f5e565b92915050565b600060208284031215611fa057611f9f611e8f565b5b6000611fae84828501611f75565b91505092915050565b611fc081611f54565b82525050565b6000602082019050611fdb6000830184611fb7565b92915050565b600073ffffffffffffffffffffffffffffffffffffffff82169050919050565b600061200c82611fe1565b9050919050565b61201c81612001565b811461202757600080fd5b50565b60008135905061203981612013565b92915050565b60006020828403121561205557612054611e8f565b5b60006120638482850161202a565b91505092915050565b6000806040838503121561208357612082611e8f565b5b600061209185828601611f75565b92505060206120a28582860161202a565b9150509250929050565b6000819050919050565b6120bf816120ac565b81146120ca57600080fd5b50565b6000813590506120dc816120b6565b92915050565b600080604083850312156120f9576120f8611e8f565b5b60006121078582860161202a565b9250506020612118858286016120cd565b9150509250929050565b600061212d82611fe1565b9050919050565b61213d81612122565b811461214857600080fd5b50565b60008135905061215a81612134565b92915050565b600080fd5b600080fd5b600080fd5b60008083601f84011261218557612184612160565b5b8235905067ffffffffffffffff8111156121a2576121a1612165565b5b6020830191508360208202830111156121be576121bd61216a565b5b9250929050565b600080600080600080600060c0888a0312156121e4576121e3611e8f565b5b60006121f28a828b0161214b565b97505060206122038a828b0161202a565b96505060406122148a828b016120cd565b95505060606122258a828b016120cd565b94505060806122368a828b016120cd565b93505060a088013567ffffffffffffffff81111561225757612256611e94565b5b6122638a828b0161216f565b925092505092959891949750929550565b61227d816120ac565b82525050565b60006020820190506122986000830184612274565b92915050565b6000602082840312156122b4576122b3611e8f565b5b60006122c2848285016120cd565b91505092915050565b6122d481611e99565b82525050565b600060a0820190506122ef6000830188611fb7565b6122fc6020830187612274565b6123096040830186612274565b61231660608301856122cb565b6123236080830184611fb7565b9695505050505050565b61233681611f1e565b811461234157600080fd5b50565b6000813590506123538161232d565b92915050565b600080604083850312156123705761236f611e8f565b5b600061237e8582860161202a565b925050602061238f85828601612344565b9150509250929050565b6000806000606084860312156123b2576123b1611e8f565b5b60006123c08682870161202a565b93505060206123d1868287016120cd565b92505060406123e28682870161202a565b9150509250925092565b600080600080600060a0868803121561240857612407611e8f565b5b600061241688828901611f75565b9550506020612427888289016120cd565b9450506040612438888289016120cd565b935050606061244988828901611edc565b925050608061245a88828901611f75565b9150509295509295909350565b6000806040838503121561247e5761247d611e8f565b5b600061248c858286016120cd565b925050602061249d858286016120cd565b9150509250929050565b7f4e487b7100000000000000000000000000000000000000000000000000000000600052601160045260246000fd5b60006124e1826120ac565b91506124ec836120ac565b9250828203905081811115612504576125036124a7565b5b92915050565b600082825260208201905092915050565b7f416363657373436f6e74726f6c3a2063616e206f6e6c792072656e6f756e636560008201527f20726f6c657320666f722073656c660000000000000000000000000000000000602082015250565b6000612577602f8361250a565b91506125828261251b565b604082019050919050565b600060208201905081810360008301526125a68161256a565b9050919050565b60006125b8826120ac565b91506125c3836120ac565b92508282019050808211156125db576125da6124a7565b5b92915050565b6125ea81612001565b82525050565b60006080820190506126056000830187612274565b61261260208301866125e1565b61261f60408301856125e1565b61262c6060830184612274565b95945050505050565b6000819050919050565b61265061264b82611f54565b612635565b82525050565b6000612662828461263f565b60208201915081905092915050565b600060408201905061268660008301856125e1565b6126936020830184612274565b9392505050565b60006060820190506126af60008301866125e1565b6126bc60208301856125e1565b6126c96040830184612274565b949350505050565b600081905092915050565b7f416363657373436f6e74726f6c3a206163636f756e7420000000000000000000600082015250565b60006127126017836126d1565b915061271d826126dc565b601782019050919050565b600081519050919050565b60005b83811015612751578082015181840152602081019050612736565b60008484015250505050565b600061276882612728565b61277281856126d1565b9350612782818560208601612733565b80840191505092915050565b7f206973206d697373696e6720726f6c6520000000000000000000000000000000600082015250565b60006127c46011836126d1565b91506127cf8261278e565b601182019050919050565b60006127e582612705565b91506127f1828561275d565b91506127fc826127b7565b9150612808828461275d565b91508190509392505050565b6000601f19601f8301169050919050565b600061283082612728565b61283a818561250a565b935061284a818560208601612733565b61285381612814565b840191505092915050565b600060208201905081810360008301526128788184612825565b905092915050565b7f4e487b7100000000000000000000000000000000000000000000000000000000600052603260045260246000fd5b60006128ba826120ac565b91507fffffffffffffffffffffffffffffffffffffffffffffffffffffffffffffffff82036128ec576128eb6124a7565b5b600182019050919050565b6000815190506129068161232d565b92915050565b60006020828403121561292257612921611e8f565b5b6000612930848285016128f7565b91505092915050565b7f5361666545524332303a204552433230206f7065726174696f6e20646964206e60008201527f6f74207375636365656400000000000000000000000000000000000000000000602082015250565b6000612995602a8361250a565b91506129a082612939565b604082019050919050565b600060208201905081810360008301526129c481612988565b9050919050565b60006129d6826120ac565b91506129e1836120ac565b92508282026129ef816120ac565b91508282048414831517612a0657612a056124a7565b5b5092915050565b7f4e487b7100000000000000000000000000000000000000000000000000000000600052604160045260246000fd5b6000612a47826120ac565b915060008203612a5a57612a596124a7565b5b600182039050919050565b7f537472696e67733a20686578206c656e67746820696e73756666696369656e74600082015250565b6000612a9b60208361250a565b9150612aa682612a65565b602082019050919050565b60006020820190508181036000830152612aca81612a8e565b9050919050565b7f416464726573733a20696e73756666696369656e742062616c616e636520666f60008201527f722063616c6c0000000000000000000000000000000000000000000000000000602082015250565b6000612b2d60268361250a565b9150612b3882612ad1565b604082019050919050565b60006020820190508181036000830152612b5c81612b20565b9050919050565b600081519050919050565b600081905092915050565b6000612b8482612b63565b612b8e8185612b6e565b9350612b9e818560208601612733565b80840191505092915050565b6000612bb68284612b79565b915081905092915050565b7f416464726573733a2063616c6c20746f206e6f6e2d636f6e7472616374000000600082015250565b6000612bf7601d8361250a565b9150612c0282612bc1565b602082019050919050565b60006020820190508181036000830152612c2681612bea565b905091905056fea2646970667358221220e6ff4e91c3768c3a4eda38499d77cf091972f308a615428d1daa77e8158b4d1964736f6c63430008110033",
  "linkReferences": {},
  "deployedLinkReferences": {}
}